:020000040800F2
:10000000B00F0020C5010008AF010008B1010008D1
:10001000B5010008B9010008BD010008000000009A
:10002000000000000000000000000000C101000806
:10003000C301000800000000E16C00085532000810
:10004000DF010008DF010008DF010008DF01000810
:10005000DF010008DF010008DF010008DF01000800
:10006000DF010008DF010008DF010008DF010008F0
:10007000DF010008DF010008DF010008DF010008E0
:10008000DF010008DF010008DF010008DF010008D0
:10009000D1200008DF010008DF010008DF010008AF
:1000A000DF010008DF010008DF010008DF010008B0
:1000B000233D0008DF010008DF010008DF01000820
:1000C000DF010008DF010008DF010008DF01000890
:1000D000DF010008DF010008DF010008DF01000880
:1000E000DF010008DF010008DF010008DF01000870
:1000F000DF010008DF010008DF010008DF01000860
:10010000DF010008DF010008DF010008DF0100084F
:10011000DF010008DF010008DF010008DF0100083F
:10012000DF010008DF010008DF010008DF0100082F
:10013000DF010008DF010008DF010008DF0100081F
:10014000B7390008DF010008DF010008DF010008FF
:10015000DF010008DF010008DF010008DF010008FF
:10016000DF010008DF010008DF010008DF010008EF
:10017000DF010008DF010008DF010008DF010008DF
:10018000DF010008DF010008DFF810D007F00AF9EE
:1001900006F010FE00480047A1010008B00F002043
:1001A00010B500F029F900F040F9002010BD7047AB
:1001B00000BFFEE700BFFEE700BFFEE700BFFEE7AF
:1001C000704770470648804706480047FEE7FEE74D
:1001D000FEE7FEE7FEE7FEE7FEE7FEE7FEE7FEE7F7
:1001E000C5020008890100080CB5002001900090AC
:1001F0007648006840F480307449086000BF734856
:10020000006800F4003000900198401C01900098B4
:1002100018B90198B0F5A04FF1D16C48006800F40E
:10022000003010B10120009001E000200090009803
:10023000012846D165484030006840F0805063494D
:10024000403108606248006840F4404060490860FE
:100250005E48083000685D4908310860084600685B
:1002600040F4004008600846006840F4A050086070
:100270005848091F0860081F006840F08070091F77
:10028000086000BF5148006800F000700028F9D0F5
:1002900040F20570504908604C480830006820F072
:1002A00003004A49083108600846006840F002002F
:1002B000086000BF45480830006800F00C000828BE
:1002C000F8D10CBD10B54548006840F470004349B2
:1002D00008603E48006840F001003C49086000208A
:1002E0003A4908310860394800683D4908403749B3
:1002F00008603C48091D0860081F006820F4802041
:10030000091F0860002031490C310860FFF76CFFBD
:100310004FF0006031498039086010BD70B5002091
:100320000022022300240221284D08352D6805F003
:100330000C0020B1042806D0082834D107E02A4D4B
:100340002A4E356033E02A4D284E35602FE01F4D90
:100350002D1D2D68C5F380541C4D2D1D2D6805F0F5
:100360003F0154B1224DB5FBF1F5184E361D3668EC
:10037000C6F3881605FB06F209E01B4DB5FBF1F547
:10038000124E361D3668C6F3881605FB06F20F4D71
:100390002D1D2D68C5F301456D1C6B00B2FBF3F5F7
:1003A000124E356003E0104D104E356000BF00BFA7
:1003B000064D08352D68C5F303150E4E705D0B4DC7
:1003C0002D68C540094E356070BD00000038024000
:1003D0000070004008544007003C024088ED00E0F7
:1003E000FFFFF6FE103000240024F400000000207F
:1003F00000127A000400002010B502F0B3FF02F0F2
:1004000031FF02F0EBFD02F065FD4FF4E13000F04A
:10041000DFF81821144801F0FDFF00F0C0F81E209D
:1004200002F06AFF00F042F810BD1CE0002002F06C
:1004300067FD0E48007801280CD10DA007F016F8D2
:1004400000F038F80F48006808B9012000E00020EB
:100450000C4908600C4890F900100CA007F006F851
:100460001E2002F049FFE1E71D00002044000020AB
:10047000C7D0BBBBB5BDC1CBD7F3B2EDC2B70D0A78
:10048000000000008C0242421C00002025640D0A7E
:10049000000000001CB502202C4900231A46CDE9BB
:1004A0000010F8212A4802F00DF81CBD10B5FFF726
:1004B000F1FF10BD1CB50220264900231A46CDE9E4
:1004C0000010F821224801F0FDFF1CBD1CB50220E0
:1004D000214900231A46CDE90010F8211C4801F0FB
:1004E000F1FF1CBD0FB40CB59DF81610002006E0FE
:1004F0000DF11702125C0DF80020421CD0B28842A8
:10050000F6DB04291DD19DF800201AB10022134BFF
:100510001A7002E00122114B1A709DF80120104B55
:100520001A709DF80220002303EA022252B20D4BFA
:100530001A709DF803201B781A4352B2094B1A70A7
:1005400000E000BF02B05DF814FB000014000020C2
:100550001D00002016000020180000201A000020B6
:100560001B0000201C00002038B5044620687828B5
:1005700006D12069009094E80F00FFF7B3FF00E078
:1005800000BF00BF38BD00B585B069460D4801F019
:10059000D1FF10B16846FFF7E7FF05B000BD10B509
:1005A0001421022001F03CFD01220221064801F045
:1005B00051F9AFF22D000549086010BD014800BF98
:1005C000704700001D000020006400403000002043
:1005D00010B588B004460121022000F045FC01213D
:1005E000880400F08AFC07220A21504800F029FA0A
:1005F00007220B214D4800F024FA4FF4406006908A
:1006000002208DF81C008DF81D0000208DF81E00C2
:1006100001208DF81F0006A9444800F087F90294D4
:100620000020ADF80C00ADF80E00ADF81000ADF8EC
:1006300014000C20ADF8120002A93D4801F0C5FAE3
:1006400001213B4801F049FB4021394801F02DFCD4
:10065000012240F22551364801F0F5FB27208DF8A4
:10066000040003208DF805008DF8060001208DF8A8
:10067000070001A800F067F808B010BD00BF2C49C2
:10068000098801F040010029F9D02949091D088095
:10069000704710B503460C46002200BF985CFFF778
:1006A000EDFF501C82B2A242F8DB10BD2DE9F041F3
:1006B00007460D461F4806780024002028700520B4
:1006C00002F01AFE1B48007886420FD176B100BFB7
:1006D00004E01948005D3855601CC4B2B442F8DB30
:1006E000144800782870002012490870BDE8F08195
:1006F00010B540F225510E4801F0E0FB60B10C4806
:1007000001F01AFBC4B20C480A490978445409485C
:100710000078401C0749087010BD00B502460B4622
:10072000D0B2FFF7ABFF104600BD0000000402404E
:10073000004800401E000020AC0000203349014367
:10074000334A1160704770B5002100230F22C4782E
:1007500024B32F4C246804F4E064C4F5E064C4F3CB
:100760000721C1F10404E3B20A4144789C40E1B29C
:100770008478144021430C07210E264C05786155DE
:10078000047804F01F050124AC4005786D114FF08A
:10079000E02606EB8505C5F8004109E0047804F081
:1007A0001F040125A5401C4C0678761144F82650FC
:1007B00070BD1A4A0A400243154B1B1F1A6070474E
:1007C00039B1134A121D12680243114B1B1D1A60E6
:1007D00006E00F4A121D126882430D4B1B1D1A6062
:1007E0007047042808D14FF0E021096941F0040165
:1007F0004FF0E022116107E04FF0E021096921F09C
:1008000004014FF0E0221161704700000000FA057A
:100810000CED00E000E400E080E100E080FFFF1F5D
:1008200010B504469848844208D10121084600F0DA
:1008300086FB0021012000F082FB76E09348844291
:1008400008D10121022000F07AFB0021022000F0F3
:1008500076FB6AE08E48844208D10121042000F032
:100860006EFB0021042000F06AFB5EE089488442B0
:1008700008D10121082000F062FB0021082000F0CF
:100880005EFB52E08448844208D10121102000F030
:1008900056FB0021102000F052FB46E07F488442C6
:1008A00008D10121202000F04AFB0021202000F087
:1008B00046FB3AE07A48844208D10121402000F00A
:1008C0003EFB0021402000F03AFB2EE075488442B8
:1008D00008D10121802000F032FB0021802000F0AF
:1008E0002EFB22E07048844208D10121801500F0DF
:1008F00026FB0021A01500F022FB16E06B48844285
:1009000008D10121401500F01AFB0021601500F00C
:1009100016FB0AE06648844207D10121001500F069
:100920000EFB0021201500F00AFB10BDF0B50A46B1
:1009300000210023002400BF3DE0012505FA01F35A
:10094000156805EA03049C4234D105684F0003266C
:10095000BE40B543056015794E00B5400668354385
:1009600005601579012D02D01579022D16D1856803
:100970004F000326BE40B543856055794E00B54013
:10098000866835438560456801268E40B5434560DD
:10099000456896798E40B6B235434560C5684F00CC
:1009A0000326BE40B543C560D5794E00B540C66844
:1009B0003543C560491C1029BFD3F0BD4FF6FF7108
:1009C00001600021017141718171C171704708B5E9
:1009D0004FF480320092009A0A430092009AC2615A
:1009E000C161009AC261C2690092C269009208BDE9
:1009F0000246002013690B4201D0012000E00020D4
:100A000070470146086980B270470246002053696A
:100A10000B4201D0012000E00020704701464869E8
:100A200080B2704701837047418370470AB10183E8
:100A300000E0418370474161704742694A4042612A
:100A40007047F0B5002300244D07ED0E02FA05F3C0
:100A5000CE1000F1200555F826504E07F70E0F2650
:100A6000BE40B543CF1000F1200646F82750CE1007
:100A700000F1200555F8265045EA0304CE1000F198
:100A8000200545F82640F0BD000002400004024069
:100A900000080240000C0240001002400014024016
:100AA00000180240001C02400020024000240240C6
:100AB00000280240F948006840F00100F74908604A
:100AC0000020F64908310860F4480068F4490840FD
:100AD000F2490860F348091D0860F348EF49843182
:100AE0000860F0481038091D0860EC48006820F4E0
:100AF0008020EA4908600020E8490C310860E74995
:100B00008C31086070470021E44A921C1170114634
:100B10000870704710B501460022002300204A11DA
:100B2000012A02D1DD4C236808E0022A03D1DB4C04
:100B30007034236802E0D94C7434236801F01F023A
:100B4000012494401C4201D0012000E0002010BD8F
:100B500038B5002000900024002500BF3120FFF7A9
:100B6000D9FF05460098401C00900098B0F5A04FB2
:100B700001D0002DF2D03120FFF7CCFF08B10124C5
:100B800000E00024204638BD01460020C34A10681A
:100B900020F0F80040EAC10010607047C3490860C7
:100BA00070470021BD4A703211701170012802D0C7
:100BB00004280AD104E00121B84A7032117005E01E
:100BC0000521B64A7032117000E000BF00BF7047C7
:100BD000B7490860704770B5049C41EA8215012648
:100BE000C6EB530645EA0645054345EA0465AB4EA8
:100BF000361D356070BDAD4908667047820142EA16
:100C00000172A64B84331A607047A8498866704702
:100C100010B5830143EA016343EA02739F4C8834B1
:100C2000236010BDA14908677047A049C864704798
:100C300002460020994B0833186820F0EC6042EA25
:100C400001031843954B0833186070470246002093
:100C5000924B0833186820F0784042EA01031843A9
:100C60008E4B083318607047014600208B4A0832CB
:100C7000106820F003000843106070478748083070
:100C8000006800F00C00704701460020834A0832DB
:100C9000106820F0F0000843106070470146002003
:100CA0007E4A0832106820F4E05008431060704714
:100CB00001460020794A0832106820F4604040EA7A
:100CC000C10010607047F0B5002100220024022509
:100CD00000260223714F08373F6807F00C0121B14D
:100CE000042905D0082937D105E0724F076036E0A6
:100CF000714F076033E0694F3F1D3F68C7F380566F
:100D0000664F3F1D3F6807F03F036EB16A4FB7FB68
:100D1000F3F7DFF888C10CF1040CDCF800C0CCF369
:100D2000881C07FB0CF40CE0624FB7FBF3F7DFF80D
:100D30006CC10CF1040CDCF800C0CCF3881C07FB80
:100D40000CF4564F3F1D3F68C7F301477F1C7D00E1
:100D5000B4FBF5F7076002E0564F076000BF00BF25
:100D60004E4F08373F6807F0F0010909534F7A5C8E
:100D70000768D7404760494F08373F6807F4E0519C
:100D8000890A4E4F7A5C4768D7408760434F0837DF
:100D90003F6807F46041490B484F7A5C4768D74089
:100DA000C760F0BD002100F44072B2F5407F0AD167
:100DB0003A4A0832116821F4F811414A02401143BD
:100DC000364A08321160354A70321268C0F30B039C
:100DD0001A43324B70331A60704735494439086002
:100DE000704733494039086070473649086070479A
:100DF00001460020294A8C32106820F01F004A1E4C
:100E00001043264A8C321060704701460020234A66
:100E10008C32106820F4F8504A1E40EA02201F4A23
:100E20008C3210607047014600201C4A8C321068DA
:100E300020F4401008431060704701460020174A14
:100E40008C32106820F4400008431060704701465F
:100E50000020124A8C32106820F4403008431060A1
:100E6000704719490860704739B10C4A303212682E
:100E700002430A4B30331A6006E0084A30321268E7
:100E80008243064B30331A607047F9B1034A34325B
:100E900012680243014B34331A601CE000380240F0
:100EA000FFFFF6EA10300024003000200000474227
:100EB000800E47420024F40000127A001F00002038
:100EC000FFFCFF0F5C014742E01147428F4A126866
:100ED00082438E4B1A60704739B18C4A121D1268DA
:100EE00002438A4B1B1D1A6006E0884A121D1268D5
:100EF0008243864B1B1D1A60704739B1834A0C32FE
:100F000012680243814B0C331A6006E07F4A0C32B0
:100F1000126882437D4B0C331A60704739B17B4AAB
:100F2000103212680243794B10331A6006E0774A98
:100F3000103212688243754B10331A60704739B112
:100F4000724A243A12680243704B243B1A6006E04E
:100F50006E4A243A126882436C4B243B1A607047F5
:100F600039B16A4A203A12680243684B203B1A6042
:100F700006E0664A203A12688243644B203B1A60BE
:100F8000704739B1614A1C3A126802435F4B1C3BFF
:100F90001A6006E05D4A1C3A126882435B4B1C3BB8
:100FA0001A60704739B1594A143A12680243574BD4
:100FB000143B1A6006E0554A143A12688243534BB8
:100FC000143B1A60704739B1504A103A1268024314
:100FD0004E4B103B1A6006E04C4A103A12688243AE
:100FE0004A4B103B1A60704739B1484A1C321268AC
:100FF0000243464B1C331A6006E0444A1C32126816
:101000008243424B1C331A60704739B13F4A203249
:10101000126802433D4B20331A6006E03B4A2032FF
:1010200012688243394B20331A60704739B1374A0E
:10103000243212680243354B24331A6006E0334AE7
:10104000243212688243314B24331A60704739B11D
:101050002E4A2C32126802432C4B2C331A6006E0C5
:101060002A4A2C3212688243284B2C331A6070476C
:1010700039B1264A303212680243244B30331A60A9
:1010800006E0224A303212688243204B30331A6025
:101090007047012808D11D493C31096841F0080119
:1010A0001A4A3C32116007E018493C31096821F0C6
:1010B0000801164A3C321160704739B1134A273A89
:1010C00012780243114B273B1A7006E00F4A273A69
:1010D000127882430D4B273B1A7070470B48403003
:1010E000006840F08070094940310860704701464F
:1010F0000020064A283A12680A4201D0012000E086
:101100000020704701492639087070473438024082
:1011100010B50446FE48844209D101214806FFF774
:1011200041FF00214FF00070FFF73CFF08E0012174
:101130008806FFF737FF00214FF08060FFF732FF8E
:1011400010BD30B5024600200023146824F00204CC
:101150001460146844F00104146000E05B1C5468DF
:1011600014F0010F03D1A3F57F44FF3CF6D154687E
:1011700014F0010F01D100206CE08C79012C04D116
:10118000146844F08004146003E0146824F08004C0
:101190001460CC79012C04D1146844F0400414602C
:1011A00003E0146824F0400414600C7A012C04D18C
:1011B000146844F02004146003E0146824F0200450
:1011C00014604C7A012C04D1146844F010041460AB
:1011D00003E0146824F0100414608C7A012C04D10C
:1011E000146844F00804146003E0146824F0080450
:1011F0001460CC7A012C04D1146844F00404146007
:1012000003E0146824F0040414608C78A407CD78FB
:1012100044EA05640D7944EA05444D7944EA0554ED
:101220000D886D1E2C43D461146824F001041460F1
:10123000002300E05B1C546814F0010F03D0A3F5F9
:101240007F44FF3CF6D1546814F0010F01D0002018
:1012500000E0012030BD10B50021837A012202FA9E
:1012600003F1AC4A126842F00102AA4B1A60A94A83
:101270001C3212688A43A74B1C331A60027BCAB91E
:10128000A44A0C3212688A43A24B0C331A6042887B
:10129000C38842EA03439F4A4032847A42F834309A
:1012A0000288838842EA03439A4A4032847A02EBF6
:1012B000C4025360027B012A19D1964A0C3212688B
:1012C0000A43944B0C331A604288038842EA034372
:1012D000904A4032847A42F83430C288838842EAA5
:1012E00003438C4A4032847A02EBC4025360C27AD0
:1012F0003AB9884A121D12688A43864B1B1D1A6030
:1013000006E0844A121D12680A43824B1B1D1A60B4
:10131000028932B97F4A143212688A437D4B1433F2
:101320001A600289012A06D17A4A143212680A43E5
:10133000784B14331A60427B012A06D1754A1C325D
:1013400012680A43734B1C331A60724A126822F007
:101350000102704B1A6010BD00218171C1710172D0
:1013600041728172C1728170C170032101710221C9
:1013700041710121018070476649096841F001010E
:10138000644A11601146096843F60E729143614A3E
:1013900011601146096841EA00211160114609688F
:1013A00021F001011160704721B1026842F48032DE
:1013B000026003E0026822F4803202607047E1B10B
:1013C000026842F0800202604FF4C272125842F486
:1013D00080734FF4C27213504FF4CA72125842F421
:1013E00080734FF4CA7213504FF4D272125842F401
:1013F00080734FF4D27213501BE0026822F0800217
:1014000002604FF4C272125822F480734FF4C27219
:1014100013504FF4CA72125822F480734FF4CA72F8
:1014200013504FF4D272125822F480734FF4D272D8
:101430001350704710B502460020936803F0806394
:10144000B3F1806F00D110E0936803F00063B3F153
:10145000006F01D1012008E0936803F08053B3F1DD
:10146000805F01D1022000E00420042879D002F539
:10147000C07303EB00131B6803F0010402F5C07393
:1014800003EB00131C600B7A7BB94B7A0C8843EAA0
:10149000445302F5C07404EB00142468234302F59E
:1014A000C07404EB0014236010E00B7A4C6843EA2C
:1014B000C4034C7A234302F5C07404EB001424687F
:1014C000234302F5C07404EB001423608B7A03F00D
:1014D0000F038B7202F5C07303EB00135B6823F0FC
:1014E0000F0402F5C07303EB00135C6002F5C073D8
:1014F00003EB00135B688C7A234302F5C07404EBA2
:10150000001463608B7B1C064B7B44EA034403E0BE
:1015100000640040006600400B7B44EA0323CC7A61
:10152000234302F5C07404EB0014A3608B7C1C06FB
:101530004B7C44EA03440B7C44EA0323CC7B2343E7
:1015400002F5C07404EB0014E36002F5C07303EB12
:1015500000131B6843F0010402F5C07303EB001392
:101560001C6010BD10B50246002321B1012907D02F
:1015700002290FD109E09068F84C00EA04030BE05F
:101580009068F74C00EA040306E09068F54C00EA26
:10159000040301E0002300BF00BFF34C181BA3426B
:1015A00016D007DC83B16FF0806018180ED00228C7
:1015B00018D111E0B0F5007F10D0EC4C001909D023
:1015C000B0F5003F0ED10BE002230DE000230BE04D
:1015D000002309E0002307E0012305E0012303E0E5
:1015E000012301E0002300BF00BFD8B210BD21B12C
:1015F000012907D002290FD109E0826842F0800258
:1016000082600AE0826842F40042826005E08268FB
:1016100042F40002826000E000BF00BF704710B5D6
:1016200000F5D87303EB01131B6803F00403137276
:10163000137A53B900F5D87303EB01131B6840F21A
:10164000FF7404EA5353136009E000F5D87303EB09
:1016500001131B686FF0604404EAD303536000F584
:10166000D87303EB01131B6803F00203537200F5F8
:10167000D87303EB01135B6803F00F03937200F55B
:10168000D87303EB01135B681B0AD37400F5D8739E
:1016900003EB01139B68D37200F5D87303EB0113BE
:1016A0009B681C0A147300F5D87303EB01139B6845
:1016B0001C0C547300F5D87303EB01139B681B0ECD
:1016C000937300F5D87303EB0113DB68D37300F554
:1016D000D87303EB0113DB681C0A147400F5D8738C
:1016E00003EB0113DB681C0C547400F5D87303EB97
:1016F0000113DB681B0E937421B9C36843F0200308
:10170000C36003E0036943F02003036110BD21B906
:10171000C26842F02002C26003E0026942F0200287
:10172000026170470246002019B9D36803F0030034
:1017300006E0012903D1136903F0030000E0002053
:10174000704710B502460B4600204FF6FF71BBB93B
:10175000146824F0020444F00104146000E0491EFF
:10176000546804F00304012C01D00029F7D1546817
:1017700004F00304012C01D0002032E0012030E00D
:10178000012B13D1146824F00304146000E0491EF7
:10179000546814F0030F01D00029F8D1546814F0F4
:1017A000030F01D000201CE001201AE0022B17D10A
:1017B000146824F0010444F00204146000E0491E9F
:1017C000546804F00304022C01D00029F7D15468B6
:1017D00004F00304022C01D0002002E0012000E00C
:1017E000002010BD014600200A6822F0010242F0EC
:1017F00002020A604A6802F00302022A00D10120B4
:10180000704701464FF6FF7200200B6823F0020379
:101810000B6000E0521E4B6803F00203022B01D163
:10182000002AF7D14B6803F00203022B00D00120FD
:101830007047014600208A6902F070007047014637
:1018400000208A69100E7047014600208A69C2F3A1
:10185000074070471AB143690B43436102E0436993
:101860008B434361704710B50246002011F4700F9E
:1018700008D09369C1F31304234201D001202DE065
:1018800000202BE011F0807F08D05368C1F31304CF
:10189000234201D0012021E000201FE011F0006F61
:1018A00008D09368C1F31304234201D0012015E04E
:1018B000002013E011F0007F08D0D368C1F31304B7
:1018C000234201D0012009E0002007E01369C1F3A1
:1018D0001304234201D0012000E0002010BD0022AB
:1018E000234B994202D10023836111E0C1F313021B
:1018F00011F0007F01D0C2600AE011F0806F01D0CA
:10190000026105E011F0006F01D0826000E04260EA
:101910007047024600200A4201D0012000E000206A
:10192000704770B504460D4600266069284272D0A3
:10193000B5F5807F69D01DDC082D42D006DC012D75
:101940002DD0022D31D0042D7FD134E0102D3ED08A
:10195000202D42D0402D78D145E000000300000446
:101960000003000800000310000100080001FFF759
:101970007000F030B5F5004F61D009DCB5F5007F9F
:101980004AD0B5F5806F4DD0B5F5006F5DD150E010
:10199000B5F5803F2DD0B5F5003F56D12FE0A068BA
:1019A0005549FFF7B6FF064651E0E0680321FFF70F
:1019B000B0FF06464BE0E0680821FFF7AAFF0646A5
:1019C00045E0E0681021FFF7A4FF06463FE02069EC
:1019D0000321FFF79EFF064639E020690821FFF743
:1019E00098FF064633E020691021FFF792FF064674
:1019F0002DE060680821FFF78CFF064627E060684D
:101A00001021FFF786FF064621E0A0690121FFF7BC
:101A100080FF06461BE01BE0A0690221FFF779FF6B
:101A2000064614E0A0690421FFF773FF06460EE0A6
:101A30000BE0A0697021FFF76CFF064607E06068C5
:101A40000421FFF766FF064601E0002600BF00E024
:101A50000026304670BDB1F5007F3AD00FDC20295A
:101A600028D006DC01291CD004291DD0082940D12A
:101A70001DE0402921D0B1F5807F3AD126E0B1F5B3
:101A8000004F31D006DCB1F5806F25D0B1F5006F85
:101A90002FD124E0B1F5803F12D0B1F5003F28D11D
:101AA00011E0154A826025E00822C26022E010227F
:101AB000C2601FE0082202611CE01022026119E0EE
:101AC0000822426016E01022426013E004224260C5
:101AD00010E0042242600DE0042242600AE000228D
:101AE00082610422426005E0002282610422426099
:101AF00000E000BF00BF70470101010010B50446BF
:101B0000FA48844208D101211020FFF75CFA002135
:101B10001020FFF758FA57E0F548844209D1012117
:101B20004804FFF73FFA00214FF40030FFF73AFA7C
:101B30004AE0F048844209D101218804FFF732FAD3
:101B400000214FF48020FFF72DFA3DE0EA4884425F
:101B500009D10121C804FFF725FA00214FF4002024
:101B6000FFF720FA30E0E548844209D10121080559
:101B7000FFF718FA00214FF48010FFF713FA23E063
:101B8000DF48844208D101212020FFF71CFA002100
:101B90002020FFF718FA17E0DA48844209D1012122
:101BA0008807FFF7FFF900214FF08040FFF7FAF9AF
:101BB0000AE0D548844207D101214005FFF7F2F938
:101BC00000216005FFF7EEF910BD2DE9FF4705463E
:101BD0000E460024A14600BFA046B08900B100BF58
:101BE0002C8A24F44054F08804432C82AC8941F2BE
:101BF0000C608443B08831890843718908430443E9
:101C0000AC81AC8A24F44074B0890443AC82684649
:101C1000FFF759F8B548854202D0B948854202D14C
:101C2000DDF80C9001E0DDF80890A88910F4004F71
:101C300008D009EBC90000EB091031684900B0FB7E
:101C4000F1F707E009EBC90000EB091031688900E2
:101C5000B0FBF1F76420B7FBF0F004012009642128
:101C600001FB1078A88910F4004F08D0322000EB57
:101C7000C800B0FBF1F000F00700044308E0322098
:101C800000EB08106421B0FBF1F000F00F000443FA
:101C90002C81BDE8FF874FF416510160002181803F
:101CA000C18001810C21418100218181704710B5E3
:101CB00002460020108A20F470600B884C88234371
:101CC0008C882343CC8823431843108210BD002105
:101CD000018041808180C180704721B1828942F4B6
:101CE0000052828104E082894DF6FF731A4082819E
:101CF0007047028B02F47F420283028B0A43028305
:101D0000704721B1828942F40042828103E08289D6
:101D1000C2F30E028281704721B1828A42F40062CE
:101D2000828204E0828A4FF2FF731A4082827047F7
:101D3000C1F308028280704701468888C0F308001A
:101D40007047028A4FF6F0731A400282028A0A43F1
:101D50000282704721B1828942F00202828104E04E
:101D600082894FF6FD731A408281704782894FF253
:101D7000FF731A40828182890A4382817047028AF6
:101D80004FF6DF731A400282028A0A4302827047CA
:101D900021B1028A42F48042028204E0028A4BF6B8
:101DA000FF731A4002827047818941F001018181ED
:101DB000704721B1828A42F00802828204E0828A5E
:101DC0004FF6F7731A4082827047028BD2B20283B9
:101DD000028B42EA01220283704721B1828A42F0DB
:101DE0002002828204E0828A4FF6DF731A408282E8
:101DF000704721B1828A42F01002828204E0828A16
:101E00004FF6EF731A4082827047828A4FF6FB7357
:101E10001A408282828A0A438282704721B1828A72
:101E200042F00202828204E0828A4FF6FD731A4079
:101E3000828270471AB1838A0B43838202E0838ACD
:101E40008B4383827047F0B50346002400260025AB
:101E50000020A1F510676A3F00D100BF1846C1F30A
:101E6000421401F01F06012707FA06F5012C01D1E3
:101E70000C3004E0022C01D1103000E014301AB113
:101E800007682F43076002E00768AF430760F0BDB3
:101E900002460020B1F5007F00D100BF13880B423D
:101EA00001D0012000E00020704701F40072B2F57B
:101EB000007F00D100BFCA430280704770B5024660
:101EC0000024002300250020A1F510666A3E00D101
:101ED00000BFC1F3421501F01F03012606FA03F308
:101EE000012D13D19689334017E000000010014006
:101EF0000044004000480040004C004000500040BA
:101F00000014014000780040007C0040022D02D106
:101F1000168A334001E0968A33400C12012606FAF5
:101F200004F41688344013B10CB1012000E0002005
:101F300070BD10B500220023A1F510646A3C00D1E9
:101F400000BF0A1201249440A3B2DC43048010BDF8
:101F50002DE9F0418AB004460D4616461F46DDF8CD
:101F6000408001210846FEF77FFF01214806FEF769
:101F7000C4FF4FF4C050089002208DF824000020C8
:101F80008DF8260003208DF8250001208DF827000C
:101F900008A9F848FEF7CAFC09220B21F548FEF70C
:101FA00050FD09220C21F348FEF74BFD00208DF86F
:101FB0001A008DF81B008DF81C0001208DF81D0003
:101FC00000208DF81E008DF81F008DF816808DF80A
:101FD00017408DF818608DF81950ADF8147005A9E8
:101FE000E548FFF7AEF800208DF80E008DF80F00E1
:101FF00001208DF810000020ADF80400ADF80600B7
:10200000ADF80800ADF80A00ADF80C0001208DF81D
:10201000110001A8FFF71FF900200AB0BDE8F08108
:1020200038B505460C468DF8004001208DF80100BA
:1020300002208DF8020001208DF803006846FEF7AB
:1020400082FB38BD10B514210220FFF7E9FF10BD57
:1020500010B5044601222146C748FFF7FBFB10BD1F
:1020600010B5044600222146C348FFF7F3FB10BD1C
:1020700010B50220FFF7ECFF10BD10B50220FFF7EE
:10208000EFFF10BD7FB505460C46E8B28DF80A009B
:1020900000208DF80B0001208DF80C006005000C6D
:1020A000ADF80000002040EA445080B2ADF80200D4
:1020B0004FF6FF70ADF80400ADF806000020ADF853
:1020C000080001208DF80D006846FFF7C4F87FBDB9
:1020D00010B501F0D0FF0F21A748FFF7BCFCA748BF
:1020E000006810B1A5480068804701F0DFFF10BD0F
:1020F00000210160416081720172C1747047F0B5C6
:1021000085B007460D46002440F27F6000909C4851
:10211000019000208DF808008DF809008DF80A5014
:1021200000BF05E0395D0DF10B000155601C84B264
:10213000AC42F7DB69469048FFF77CF9064600247D
:1021400001E0601C84B231468B48FFF70BFA18B9E6
:1021500040F6FF708442F4DB40F6FF70844202DBFD
:10216000002005B0F0BD0120FBE72DE9F04F85B060
:1021700006460F4690469946DDF838A04FF0000B12
:1021800000960197B8F1000F03D100208DF80800E8
:1021900002E004208DF8080000208DF809008DF879
:1021A0000AA0002406E019F804100DF10B000155F7
:1021B000601C84B25445F6DB69466F48FFF73AF974
:1021C000054608E069466C48FFF734F905460BF10F
:1021D00001001FFA80FB042D03D140F6FF708345F8
:1021E000F0DB01E0601C84B229466348FFF7BAF9CE
:1021F00018B940F6FF708442F4DB40F6FF70844269
:1022000003DB002005B0BDE8F08F0120FAE770B5D0
:1022100086B006460D4601A8FFF76AFF0021564822
:10222000FFF780FA10B9002006B070BD01AA0021A6
:102230005148FFF7F4F90EB1002D01DC0020F3E75F
:10224000002408E0AC4201D32846EDE70DF10F0071
:10225000005D3055641C9DF80E00A042F2D89DF838
:102260000E00E1E72DE9F04186B006460D4617461F
:1022700001A8FFF73DFF01F065FD804609E001F090
:1022800061FDA0EB0800B84203D9002006B0BDE80C
:10229000F08100213848FFF745FA0028EFD001AA65
:1022A00000213548FFF7BBF90EB1002D01DC0020FD
:1022B000ECE7002408E0AC4201D32846E6E70DF144
:1022C0000F00005D3055641C9DF80E00A042F2D84E
:1022D0009DF80E00DAE710B504462046FFF708FF28
:1022E00000212548FFF71EFA08B9002010BD22463C
:1022F00000212148FFF793F9A07AF7E72DE9F04193
:1023000004460E4601F01EFD07462046FFF7F0FE8C
:1023100008E001F017FD0546E81BB04202D9002095
:10232000BDE8F08100211448FFF7FCF90028F0D047
:10233000224600211048FFF772F9A07AF0E72DE954
:10234000F04104460E46174601F0FCFC804620464C
:10235000FFF7CEFE00BF00210748FFF7E3F988B181
:10236000224600210448FFF75AF92068B04209D1FB
:1023700013E0000000000240006400403000002034
:10238000E575FE0C01F0DEFC0546A5EB0800B84241
:1023900002D90020BDE8F081DDE700BFA07AF9E7AF
:1023A0002DE9FF4704460E461F46DDF8308001F058
:1023B000C9FC81462046FFF79BFE00BF0021144860
:1023C000FFF7B0F9A8B1224600211148FFF727F91D
:1023D0002068B0420DD102A8217B0278914207D13A
:1023E000617B4278914203D1A17BB94200D10CE0DC
:1023F00000BF01F0A7FC0546A5EB0900404503D945
:10240000002004B0BDE8F087D8E700BFA07AF8E765
:102410000064004038B505460C460F2C36D006DC6B
:10242000032C2BD0062C09D00C2C3FD10EE0182CFD
:1024300014D01E2C1AD03C2C38D12FE000200623BB
:102440001A4605210090FFF783FD30E000200C23A1
:10245000062205210090FFF77BFD28E000201823CD
:10246000062205210090FFF773FD20E000201E23C7
:10247000062205210090FFF76BFD18E000200323E2
:10248000062205210090FFF763FD10E000200F23D6
:10249000062205210090FFF75BFD08E000203C23A9
:1024A000062205210090FFF753FD00E000BF00BFAA
:1024B00038BD70B506460C46154629462046FFF73E
:1024C0001EFE70BD2DE9F84381460C4615461E469A
:1024D000DDE908783B46324629462046CDF80080A3
:1024E000FFF743FEBDE8F8832DE9F84380460C462C
:1024F00015461E46089F33462A4621462046009729
:10250000FFF733FEBDE8F88370B506460C46154666
:1025100029462046FFF77BFE70BD2DE9F0410746B6
:102520000C4615461E46324629462046FFF79AFEBF
:10253000BDE8F08170B505460C462046FFF7CBFE9E
:1025400070BD70B506460C46154629462046FFF775
:10255000D5FE70BD3FB50446FE4A117002A8027850
:10256000FC4D6A704278AA702A46D37000222A7104
:102570006A71AA71EA713FBD2DE9F84380460E46A3
:1025800017461C46089D3B46324640214046FFF711
:10259000E1FF0820EF4B002205F5C06100900846DE
:1025A000FFF7E3FD012816D16421EB48FFF7A6FEF3
:1025B00088B1E9480068A0F5B060A8420BD1E648B0
:1025C000C07A4F2806D12146E348C07B087001201D
:1025D000BDE8F88300BF0020FAE72DE9F84F8146F7
:1025E0000D4616461F46DDE90A4833462A46402175
:1025F0004846FFF7AFFF0020207601F0A3FB82469C
:102600000820D44B002208F5C06100900846FFF76F
:10261000ACFD012820D108E001F094FBA0EB0A00FA
:10262000642802D90020BDE8F88F207E0028F3D06E
:10263000207BE9B288420FD1607BB0EB252F0BD114
:10264000A07BB04208D1E07A4F2804D13946E07B24
:1026500008700120E7E700BF0020E4E72DE9F84318
:1026600080460E4617461C46089D3B463246402192
:102670004046FFF76FFF0820B64B002205F5C0610A
:1026800000900846FFF771FD012819D16421B24876
:10269000FFF734FEA0B1B0480068A0F5B060A842D2
:1026A0000ED1AD48C07A4B2809D12146AA48C07B3B
:1026B0000870A948007C48700120BDE8F88300BF7D
:1026C0000020FAE72DE9F84F81460D4617461E46D1
:1026D000DDE90A483B462A462B214846FFF73AFFE8
:1026E0000020207601F02EFB82460820994B002224
:1026F00008F5C06100900846FFF737FD012822D198
:1027000008E001F01FFBA0EB0A00642802D90020BA
:10271000BDE8F88F207E0028F3D0207BE9B2884204
:1027200011D1607BB0EB252F0DD1A07BB8420AD12F
:10273000E07A4B2806D13146E07B0870207C487057
:102740000120E5E700BF0020E2E72DE9F8438046DD
:102750000E4617461C46089D3B46324640214046E1
:10276000FFF7F8FE08207B4B002205F5C0610090C2
:102770000846FFF7FAFC01281FD164217648FFF7CD
:10278000BDFDD0B174480068A0F5B060A84214D176
:102790007148C07A43280FD121466F48C07B08702A
:1027A0006D48007C48706C48407C88706A48807C2A
:1027B000C8700120BDE8F88300BF0020FAE72DE9CA
:1027C000F84F81460E4617461D46DDE90A483B464E
:1027D000324640214846FFF7BDFE0020207601F03A
:1027E000B1FA824608205B4B002208F5C0610090D8
:1027F0000846FFF7BAFC012826D108E001F0A2FA4A
:10280000A0EB0A00642802D90020BDE8F88F207EE2
:102810000028F3D0207BF1B2884215D1607BB0EB69
:10282000262F11D1A07BB8420ED1E07A43280AD1DD
:102830002946E07B0870207C4870607C8870A07C12
:10284000C8700120E1E700BF0020DEE72DE9FF416D
:1028500082B007460D4616460C9C33462A462F2169
:102860003846FFF777FE0DF1140898F80000394953
:10287000087108200B46002204F5C061009008464C
:10288000FFF773FC90B16420009004F5B06081B252
:1028900033462A463048FFF783FD38B12E48C07AC8
:1028A000602803D1012006B0BDE8F0810020FAE7DE
:1028B0002DE9FF4782B080460D461646DDE90E47FA
:1028C00033462A462F214046FFF744FE0DF11409F6
:1028D00099F800001F4908710020207601F032FAB3
:1028E000824608201B4B002207F5C0610090084675
:1028F000FFF73BFC90B109E001F024FAA0EB0A00DD
:10290000642803D9002006B0BDE8F087207E0028A7
:10291000F2D0E07A602801D10120F4E70020F2E74C
:102920002DE9FF4182B080460D4616460C9C334689
:102930002A462B214046FFF70DFE05AF38780549A2
:1029400008717878487108200B46002204F5C061B0
:10295000009003E034000020100100200846FFF73B
:1029600004FC90B16420009004F5B06081B233465D
:102970002A46FE48FFF714FD38B1FC48C07A6028AB
:1029800003D1012006B0BDE8F0810020FAE72DE96F
:10299000FF4782B081460D461646DDE90E473346B5
:1029A0002A462B214846FFF7D5FD0DF1140898F86B
:1029B0000000EF49087198F8010048710020207666
:1029C00001F0C0F982460820E94B002207F5C061FA
:1029D00000900846FFF7C9FB012812D109E001F079
:1029E000B1F9A0EB0A00642803D9002006B0BDE8C5
:1029F000F087207E0028F2D0E07A602801D1012003
:102A0000F4E70020F2E72DE9FF4182B080460E4650
:102A100017460C9D3B46324623214046FFF79AFD60
:102A200005AC2078D249087160784871A078887127
:102A3000E078C87108200B46002205F5C0610090BF
:102A40000846FFF792FB90B16420009005F5B06056
:102A500081B23B463246C548FFF7A2FC38B1C348B5
:102A6000C07A602803D1012006B0BDE8F0810020C3
:102A7000FAE72DE9FF4782B081460E461746DDE9A9
:102A80000E583B46324623214846FFF763FD05AC0E
:102A90002078B749087160784871A0788871E0782B
:102AA000C8710020287601F04DF982460820B04B0D
:102AB000002208F5C06100900846FFF756FB90B170
:102AC00009E001F03FF9A0EB0A00642803D90020D7
:102AD00006B0BDE8F087287E0028F2D0E87A6028AA
:102AE00001D10120F4E70020F2E738B505460C4695
:102AF0000F2C36D006DC032C2BD0062C09D00C2C46
:102B00003FD10EE0182C14D01E2C1AD03C2C38D1FA
:102B10002FE0002006231A460521009000F084FED5
:102B200030E000200C2306220521009000F07CFEFE
:102B300028E00020182306220521009000F074FEF2
:102B400020E000201E2306220521009000F06CFEEC
:102B500018E00020032306220521009000F064FE07
:102B600010E000200F2306220521009000F05CFEFB
:102B700008E000203C2306220521009000F054FECE
:102B800000E000BF00BF38BD70B506460C461546D4
:102B90002946204600F01FFF70BD2DE9F84381460D
:102BA0000C4615461E46DDE908783B463246294666
:102BB0002046CDF8008000F042FFBDE8F8832DE903
:102BC000F84380460C4615461E46089F33462A4663
:102BD00021462046009700F032FFBDE8F88370B52B
:102BE00006460C4615462946204600F06AFF70BD91
:102BF0002DE9F04107460C4615461E463246294649
:102C0000204600F089FFBDE8F08170B505460C460E
:102C1000204600F0BBFF70BD70B506460C46154659
:102C20002946204600F0C5FF70BD3FB50446504A16
:102C3000117002A802784E4D6A704278AA702A4636
:102C4000D37000222A716A71AA71EA713FBD2DE921
:102C5000F84380460E4617461C46089D3B463246C2
:102C600040214046FFF7E1FF0820414B002205F5D7
:102C7000C0610090084600F0E2FE012816D16421F0
:102C80003A4800F096FF88B138480068A0F5B06077
:102C9000A8420BD13548C07A4F2806D12146334887
:102CA000C07B08700120BDE8F88300BF0020FAE770
:102CB0002DE9F84380460E4617461C46089D3B46C4
:102CC000324640214046FFF7B0FF0820284B002243
:102CD00005F5C0610090084600F0B1FE012819D149
:102CE0006421224800F065FFA0B120480068A0F5EB
:102CF000B060A8420ED11D48C07A4B2809D12146A8
:102D00001A48C07B08701948007C48700120BDE853
:102D1000F88300BF0020FAE72DE9F84380460E460D
:102D200017461C46089D3B46324640214046FFF769
:102D30007CFF08200E4B002205F5C061009008467C
:102D400000F07DFE012824D16421084800F031FF05
:102D5000F8B106480068A0F5B060A84219D1034850
:102D6000C07A432814D12146004803E01001002016
:102D700034000020C07B08705448007C48705348E1
:102D8000407C88705148807CC8700120BDE8F88381
:102D900000BF0020FAE72DE9FF4182B007460D464B
:102DA00016460C9C33462A462F213846FFF73DFF36
:102DB0000DF1140898F800004549087108200B46E9
:102DC000002204F5C0610090084600F038FE90B182
:102DD0006420009004F5B06081B233462A463B4837
:102DE00000F030FF38B13948C07A602803D10120A3
:102DF00006B0BDE8F0810020FAE72DE9FF4182B07E
:102E000080460D4616460C9C33462A462B214046EA
:102E1000FFF70BFF05AF38782D49087178784871B6
:102E200008200B46002204F5C0610090084600F01F
:102E300006FE90B16420009004F5B06081B2334684
:102E40002A46224800F0FEFE38B12048C07A6028A9
:102E500003D1012006B0BDE8F0810020FAE72DE99A
:102E6000FF4182B080460E4617460C9D3B463246D7
:102E700023214046FFF7D9FE05AC2078144908719C
:102E800060784871A0788871E078C87108200B4696
:102E9000002205F5C0610090084600F0D0FD90B119
:102EA0006420009005F5B06081B23B463246074889
:102EB00000F0C8FE38B10548C07A602803D101206F
:102EC00006B0BDE8F0810020FAE700001001002004
:102ED000340000201CB501212020FDF7C5FF4FF470
:102EE0007070009000208DF8040003208DF805001C
:102EF00001208DF8070069462E48FDF717FD1CBD1F
:102F000000212D4A11702D49096849B12C490968E1
:102F100031B12C49096819B12B490968002939D107
:102F20002649096819B90121284A117013E024497A
:102F3000096819B90221254A11700CE02149096874
:102F400019B90321214A117005E01F49096811B917
:102F500004211E4A11701D4909781D4A12789142B8
:102F600010D11C490988491C1A4A1180174909784F
:102F7000194A1170E8B917490988012919DD00219A
:102F8000117016E00021134A118010490978104A87
:102F900011700EE00F490988022903DD0B490978F9
:102FA000054A117000210A4A11700A4A11800A4A22
:102FB00011707047001402404500002024824242F4
:102FC000208242421C824242188242424800002033
:102FD0004900002046000020440000201CB50121CB
:102FE0005020FDF741FF1820009001208DF80400CB
:102FF00000208DF8060003208DF8050001208DF8D3
:10300000070069460948FDF791FC18210748FDF7BC
:1030100009FD4FF40070009069460548FDF786FCF5
:103020004FF400710248FDF7FDFC1CBD001002408A
:10303000001802400A460021DAE0D30B75D01029AF
:1030400071D2DFE801F0080F161D242B32394046FB
:103050004C52585E646A038823F4004303F500432E
:10306000038060E0038823F4804303F580430380FA
:1030700059E0038823F4005303F50053038052E022
:10308000038823F4805303F5805303804BE00388C7
:1030900023F4006303F50063038044E0038823F412
:1030A000806303F5806303803DE0038823F40073AD
:1030B00003F50073038036E0038823F4807303F57F
:1030C000807303802FE0038823F080038033038024
:1030D00029E0038823F040034033038023E0038882
:1030E00023F02003203303801DE0038823F0100326
:1030F0001033038017E0038823F0080308330380AC
:1031000011E0038823F004031B1D03800BE00388F8
:1031100023F002039B1C038005E0038823F00103D6
:103120005B1C038000BF5DE0FFE7102959D2DFE898
:1031300001F0080D12171C21262B30353A3F444967
:103140004E53038823F4004303804AE0038823F4AA
:103150008043038045E0038823F40053038040E06C
:10316000038823F4805303803BE0038823F4006347
:10317000038036E0038823F48063038031E0038812
:1031800023F4007303802CE0038823F4807303800E
:1031900027E0038823F08003038022E0038823F0E4
:1031A000400303801DE0038823F02003038018E020
:1031B000038823F01003038013E0038823F008033F
:1031C00003800EE0038823F00403038009E00388F2
:1031D00023F00203038004E0038823F0010303804B
:1031E00000BF00BF4FF6FF7303EA42024B1CD9B287
:1031F0001029FFF622AF7047F0B51C4600260025C7
:103200000123C1F11007974202DAC1F11007FAB2A7
:103210000E46002E0CDD05E0EF18BDB24FF6FF772D
:1032200007EA43033700A6F1010C0CF0FF06F3D1C7
:10323000D0F814C04FF6FF7797408F402F430CEA29
:10324000070CC0F814C0476904FA01FC47EA0C07F0
:103250004761F0BD10B500F00EFF01F052F800F02C
:1032600025FF10BD10B56FF00400FDF7BAFA152068
:10327000FE490870152441F2883014FB00F4052043
:10328000FB4908804FF0E020006940F002004FF059
:10329000E021086108464461006940F001000861CE
:1032A00010BD2DE9F047074600264FF0E020D0F88A
:1032B0001490EE48007807FB00F800BF00F02EFFE6
:1032C0004FF0E020856911E04FF0E0208469AC42C6
:1032D0000CD0AC4202D2281B064403E0A9EB040048
:1032E000284406442546464500D300E0ECE700BFED
:1032F00000F059FFBDE8F08770B50446DD4800785E
:10330000012814D1DC48007888B9D9480088844263
:1033100006DBD748008894FBF0F5284601F0C2F997
:10332000D348008894FBF0F100FB114084B24FF4C5
:103330007A7104FB01F0FFF7B4FF70BD08B54FF4DC
:103340004070FDF7FBF927208DF8000000208DF874
:1033500001008DF8020001208DF803006846FDF79A
:10336000F2F908BD10B5FFF7E9FFFFF77BFF10BDCD
:103370002DE9F0412DED048BB0EE408A05460E4656
:1033800018EE100A03F06FFE41EC100BB0EE409AFD
:10339000F0EE609A53EC192BB8A1304604F076F8A1
:1033A000062D0FDA304603F0F5FC3044441EA01F12
:1033B000471902E000202070641EBC4202D9207828
:1033C0003028F7D03046BDEC048BBDE8F08170B5F5
:1033D00005460E4614462A463346AAA1204604F066
:1033E00055F8204670BD70B504460D462246A7A18B
:1033F000284604F04BF8284670BD70B504460D46CB
:103400002246A2A1284604F041F8284670BD2DE9C5
:10341000F0432DED048B8BB0B0EE408AF0EE608A65
:1034200080460C46002551EC180B03F0FDFD0746C5
:103430000DE00A2097FBF0F100FB11703030C2B2B2
:1034400028466D1C01A90A540A2097FBF0F7002FAB
:10345000EFDC002605E0681E801B01A9085CA05572
:10346000761CAE42F7DB2E2228466D1C225451EC0E
:10347000180B03F0D9FD814603F0C5FD41EC100B9C
:10348000B0EE409AF0EE609A53EC182B51EC190B09
:1034900003F044FD41EC100BB0EE408AF0EE608A80
:1034A000002730E09FED7A0B53EC102B51EC180BFA
:1034B00003F037FD41EC100BB0EE408AF0EE608A6D
:1034C00051EC180B03F0B0FD3030C2B228466D1C31
:1034D000225451EC180B03F0A7FD814603F093FD35
:1034E00041EC100BB0EE409AF0EE609A53EC182BC2
:1034F00051EC190B03F012FD41EC100BB0EE408AB9
:10350000F0EE608A7F1C4745CCDB00BF681E054695
:10351000205C3028FAD00021681C05462154204642
:103520000BB0BDEC048BBDE8F08370B50A460021FA
:10353000002300BF0C46491C045D002CFAD1491E33
:1035400005E01C465B1C165D0C46491C0655D45C08
:10355000002CF6D1445470BD2DE9F04188B00446EA
:103560000F4616464FF000082021684603F0FBFB8B
:103570000025002C02DA4FF0FF38644200BF94FBB4
:10358000F6F006FB1040092808DD94FBF6F006FB78
:1035900010403730C0B20DF8050007E094FBF6F09C
:1035A00006FB10403030C0B20DF805006D1C94FBD6
:1035B000F6F0041EE3DCB8F1000F03DA2D200DF85D
:1035C000050000E06D1E284604E01DF800102A1AD0
:1035D000B954401E0028F8DA384608B0BDE8F0813A
:1035E0002DE9F0412DED0A8B90B0B0EE408AF0EE5F
:1035F000608A04460D46202108A803F0B4FB202170
:10360000684603F0B0FB51EC180B03F00DFD0746C4
:10361000384603F0F8FC41EC100BB0EE40AAF0EE97
:1036200060AA53EC182B51EC1A0B03F077FC41EC19
:10363000100BB0EE409AF0EE609A0A2208A93846C4
:10364000FFF78AFF002C44DD9FED11AB204603F00D
:10365000DAFC41EC100BB0EE40CAF0EE60CAB0EEFE
:103660004C1AF0EE6C1AB0EE4A0A15E04C0000203D
:103670004E0000208200002076000020252E3666B5
:1036800000000000256C6C7500000000256400003F
:103690000000000000002440F0EE6A0A03F024FF5E
:1036A000B0EE40BAF0EE60BA53EC192B51EC1B0BA4
:1036B00003F037FC41EC100BB0EE409AF0EE609A4C
:1036C00051EC190B03F0B0FC80460A226946FFF763
:1036D00043FF08A803F05EFB06462E2008A9885584
:1036E000694608A803F04AFB08A9284603F059FBDD
:1036F000284610B0BDEC0A8BBDE8F08130B502461B
:103700000B464FF6FF70002112E0555C684008241C
:103710000AE010F0010F04D04AF2010585EA6000CA
:1037200000E04010651EECB2002CF2D14D1CE9B255
:103730009942EADB30BD01B52DED020B69460A78EE
:1037400002704A7842708A788270CA78C2700EBD60
:103750001CB501468DED000B002003E01DF8002094
:103760000A54401C0828F9DB1CBD08B5014600209E
:1037700003E00A5C0DF80020401C0428F9DB9DEDF5
:10378000000A08BD10B52DED028B82B00446002062
:1037900003E0215C0DF80010401C0828F9DB9DEDCA
:1037A000000A10EE101A084603F05DFC41EC180BFD
:1037B000B0EE480AF0EE680A02B0BDEC028B10BD14
:1037C0000EB51748006802901548001D006801906A
:1037D0001348083000680090124902980870029857
:1037E000000A48700298000C88700298000EC87099
:1037F000019808710198000A48710198000C8871BD
:103800000198000EC871009808720098000A48726A
:103810000098000C88720098000EC87208460EBD11
:10382000E8F7FF1F240100202DE9F0418AB004468B
:103830000D4616461F46DDF8408001210220FDF7A7
:1038400013FB01214FF0C060FDF757FB4FF44050D0
:10385000089002208DF8240000208DF82600032017
:103860008DF8250001208DF8270008A9FE48FDF7F6
:103870005DF809220C21FC48FDF7E3F809220D212F
:10388000F948FDF7DEF800208DF81A008DF81B00CE
:103890008DF81C0001208DF81D0000208DF81E0001
:1038A0008DF81F008DF816808DF817408DF8186080
:1038B0008DF81950ADF8147005A9EC48FDF741FCDE
:1038C0000E208DF80E0000208DF80F0001208DF8DD
:1038D00010000020ADF80400ADF80600ADF80800B7
:1038E000ADF80A00ADF80C0001208DF8110001A818
:1038F000FDF7B1FC00200AB0BDE8F08138B5044600
:103900000D4601222146D948FDF7A4FF8DF800504D
:1039100001208DF8010003208DF8020001208DF8B0
:1039200003006846FCF70FFF38BD10B540210220A8
:10393000FFF7E4FF10BD10B5044601222146CB4835
:10394000FDF788FF10BD10B5044600222146C74888
:10395000FDF780FF10BD10B50220FFF7ECFF10BD92
:1039600010B50220FFF7EFFF10BD7FB505460C46EE
:10397000E8B28DF80A0000208DF80B0001208DF8C8
:103980000C006005000CADF80000002040EA445037
:1039900080B2ADF802004FF6FF70ADF80400ADF84C
:1039A00006000020ADF8080001208DF80D006846E3
:1039B000FDF751FC7FBD10B500F05DFB0121AB4868
:1039C000FEF749F8AA48006810B1A9480068804786
:1039D00000F06CFB10BDF0B585B007460D46002425
:1039E00012200090019000208DF808008DF8090049
:1039F0008DF80A5000BF05E0395D0DF10B0001554F
:103A0000601C84B2AC42F7DB69469848FDF712FDB2
:103A10000646002401E0601C84B231469348FDF75D
:103A2000A1FD18B940F6FF708442F4DB40F6FF7048
:103A3000844202DB002005B0F0BD0120FBE72DE948
:103A4000F04786B006460F4690469946DDF838A006
:103A5000002401960297B8F1000F03D100208DF8E1
:103A60000C0002E004208DF80C0000208DF80D0001
:103A70008DF80EA0002406E019F804100DF10F00D7
:103A80000155601C84B25445F6DB01A97748FDF767
:103A9000D1FC0546002401E0601C84B2294673482D
:103AA000FDF760FD18B940F6FF708442F4DB40F684
:103AB000FF70844203DB002006B0BDE8F0870120E0
:103AC000FAE730B585B005460C466846FEF710FBB0
:103AD00000216648FDF726FE10B9002005B030BD74
:103AE0006A4600216148FDF79AFD0DB1002C01DC0A
:103AF0000020F3E7002108E0A14201DB2046EDE7CA
:103B00000DF10B00405C6854491C9DF80A00884286
:103B1000F2DC9DF80A00E1E72DE9F04186B00546A8
:103B20000C46174601A8FEF7E3FA00F00BF98046B1
:103B30000AE000F007F90646A6EB0800B84203D9F0
:103B4000002006B0BDE8F08100214848FDF7EAFDFD
:103B50000028EED001AA00214448FDF760FD0DB118
:103B6000002C01DC0020ECE7002108E0A14201DB91
:103B70002046E6E70DF10F00405C6854491C9DF8B3
:103B80000E008842F2DC9DF80E00DAE710B504461C
:103B90002046FEF7ADFA00213448FDF7C3FD08B911
:103BA000002010BD224600213048FDF738FDA07AE4
:103BB000F7E72DE9F04104460E4600F0C3F807464A
:103BC0002046FEF795FA08E000F0BCF80546E81B31
:103BD000B04202D90020BDE8F08100212348FDF762
:103BE000A1FD0028F0D0224600212048FDF717FD56
:103BF000A07AF0E72DE9F04104460E46174600F0A2
:103C0000A1F880462046FEF773FA00BF002117484E
:103C1000FDF788FD40B1224600211448FDF7FFFC66
:103C20002068B04200D10AE000F08CF80546A5EB10
:103C30000800B84202D90020BDE8F081E6E700BFE5
:103C4000A07AF9E72DE9FF4704460E461F46DDF846
:103C5000308000F077F881462046FEF749FA00BF31
:103C60000021024806E00000000402400068004015
:103C700054000020FDF756FDA8B12246002111484E
:103C8000FDF7CDFC2068B0420DD102A8217B02785F
:103C9000914207D1617B4278914203D1A17BB94225
:103CA00000D10CE000BF00F04DF80546A5EB09007F
:103CB000404503D9002004B0BDE8F087D0E700BF3D
:103CC000A07AF8E7006800407FB505460C46012160
:103CD0000846FDF712F90295ADF804400020ADF852
:103CE0000600ADF80C0001A94FF0804000F063FE23
:103CF00001221146900701F0FFFA0121880700F028
:103D0000E3FE1C208DF8000001208DF80100032047
:103D10008DF8020001208DF803006846FCF713FDC2
:103D20007FBD10B50121880701F0FDFA012804D1FB
:103D30002F480068401C2E4908600121880701F0C7
:103D400003FB10BD2A48006870472DE9F041044686
:103D500000260027B0460025B4F57A7F01D2A5B22F
:103D600039E04FF47A70B4FBF0F100FB1145601BB1
:103D70004FF47A71B0FBF1F03C21B0FBF1F201FBA2
:103D800012064EF6602084420FD906EB4600C0EBC7
:103D9000C610A4EBC000401B4EF66021B0FBF1F052
:103DA0003C21B0FBF1F201FB12071248844212D908
:103DB0004FF47A707843C0EB0010A4EB800006EB60
:103DC0004601C1EBC611A0EBC100401B0949B0FB85
:103DD000F1F000F0FF082B4632463946404600F02D
:103DE00093FC10B90120BDE8F0810020FBE7000042
:103DF0005800002080EE36007CB5002514E06946AE
:103E0000284602F05AFD064666B9F74850F82540A4
:103E100044B1012C06D0D4E9020100EB81006064BA
:103E20000198A064681CC5B23F2DE8D97CBD002470
:103E300000BF02E0282000F035FCEC4800780028A4
:103E4000F8D0EB4800686421B0FBF1F0E849086065
:103E50000846006828B90020E6490870FF2002F0F3
:103E60006EFD00BF02F014FF0446E3480068E3491A
:103E700008600020E0490860204602F00DFFDF489E
:103E80000068DB490968B0FBF1F0C0F16400D94972
:103E9000087002F020FEFFF7AFFF142000F002FCD4
:103EA000E0E700B587B0032000218022D44BCDE9A4
:103EB0000132CDE903104FF6FE703E23D14A009047
:103EC000AFF2950002F00EFB06AACFA13E2002F051
:103ED00073FC07B000BD002400BF00BF02F0D8FE95
:103EE0000446C5480068401CC3490860204602F0EB
:103EF000D3FE02F0EFFDF1E700B587B0032000210B
:103F00008022C54BCDE90132CDE903104FF6FF7099
:103F10003F23C24A0090AFF2410002F0E3FA06AA42
:103F2000BFA13F2002F048FC07B000BD04E0002222
:103F300000F8012B4A1E91B20029F8D1704770B5E4
:103F4000C821BB48FFF7F2FF00230FE0581C85B2E1
:103F500003EB8300B64901EB800405EB850001EB20
:103F60008006002020706660581C83B2092BEDD3B8
:103F700003EB8300AE4901EB8004002020706060F9
:103F80000846AC49086070BD70B54FF47C71AA4812
:103F9000FFF7CCFF4FF480719348FFF7C7FF002471
:103FA00013E0601CC5B2C4EBC40000EB4000A249A2
:103FB00001EB8003C5EBC50000EB400001EB800680
:103FC0005E619EA0D864601CC4B20B2CE9D3C4EB24
:103FD000C40000EB4000984901EB800300205861C9
:103FE00096A0D864002096490860934895490860D7
:103FF00070BD0021944A1170002004E00021934A12
:104000001154411CC8B20828F8D30021904A1170FD
:10401000904A1170904A1160904A116070470020D8
:104020008F4908608F4908708F4908708F49087060
:104030008F4908708F4908606F4908606F490860B0
:104040006B49086069490870704710B502F03EFD81
:10405000FFF7E5FFFFF7CDFFFFF796FFFFF76FFFD5
:1040600001F02DFE02F023F9FFF746FFFFF719FFDD
:1040700002F02DFD10BD7E480078012808D1794856
:104080000078FF2804D277480078401C75490870F2
:10409000704779496C4A1278885C6C49095C764AA9
:1040A000515C01EBC0016B4A1170704710B50024E0
:1040B0006F480078012830D102F0EAFD04466948D3
:1040C000007820B167480078401E6649087065484E
:1040D0000078F8B964480078E0B9FFF7DAFF4248A1
:1040E0005C49097850F821005B490860594800781C
:1040F0005749097888420DD057480068806B401CAA
:104100005549096888635B480068401C5949086044
:1041100002F0DEFD204602F0BFFD10BD10B5002408
:1041200053480078012811D102F0B2FD04464D48F1
:10413000007840B94C480078FF2804D24A480078FB
:10414000401C49490870204602F0A6FD10BD10B57C
:10415000002402F09DFD044642480078F8B9424828
:104160000078E0B9FFF795FF1F483A49097850F801
:104170002100394908603748007835490978884274
:104180000DD035480068806B401C3349096888634E
:1041900038480068401C3749086002F092FD20460C
:1041A00002F07AFD10BD10B50024314800780128D6
:1041B0006FD102F06DFD04462B48007880B12A488B
:1041C0000078401E284908700846007848B92548FC
:1041D000007838B9204602F05FFDFFF7B8FF58E0DD
:1041E00054E04FE04AE00000480600207400002040
:1041F0006C00002068000020840000207000002077
:10420000480200204404002075432F4F532D494994
:10421000205374617400000048040020440600200C
:1042200075432F4F532D49492049646C65000000A8
:104230003001002060000020480700203F000000FF
:10424000940000208C000020790000207A000020DB
:1042500077000020780000209000002088000020D7
:10426000A0000020750000207600002083000020C0
:10427000820000205C000020468C0008204602F0EE
:104280000BFD06E0204602F007FD02E0204602F0AA
:1042900003FD10BD10B5F248007890B9FFF7F9FEA4
:1042A000F0480078F0490870F048EE49097850F875
:1042B0002100EF49086008460068EE49086002F0F6
:1042C000EEFC10BD10B50024022000F0EBF902F066
:1042D000DFFC04460020E8490860204602F0DCFCD0
:1042E000142000F0DFF902F0D3FC0446E248006835
:1042F000E24908600120E2490870204602F0CCFC47
:1043000010BD70B5002602F0BEFC02F0C1FC0646EE
:10431000DC480068401CDB490860304602F0BCFC09
:10432000CF480078012857D1D748007820B101281C
:1043300004D0022809D103E001250BE0002509E0A3
:1043400001250120D049087004E001250020CE4954
:10435000087000BF00BF05B970BDCC48046837E0E5
:1043600002F096FC0646E06A70B3E06A401EE06226
:10437000E06A48BB94F8300010F0370F09D014F809
:10438000300F00F0C800207001206070A4F13004EC
:1043900002E0002084F8310094F8300010F0080F9B
:1043A00012D104F13404A078B949097840EA010037
:1043B000B74908702078B749085C617840EA010085
:1043C00014F83419B34A50546469304602F064FC5E
:1043D00094F832003F28C3D100BFBDE740F223105C
:1043E0007047704710B590F8342001F10B039B5CC7
:1043F00090F83540A34301F10B04A35423469B5C82
:1044000023B98B7A90F83640A3438B7210BD2DE907
:10441000F04F05460F4690469946A87A9E490E5C95
:1044200005F10B00805D11F800B00BEBC60000F049
:10443000FF0A8E4850F82A40002004F12004E06072
:104440002760207C20EA0800207484F81190207CEA
:10445000A4F1200410F0080F0DD194F836008C4917
:10446000097808438A4908708A48805D94F83510B5
:1044700008438849885529462046FFF7B3FF504630
:10448000BDE8F08F10B57B4A1268D061794A126896
:1044900092F8343000F10B02D25C764B1B6893F833
:1044A00035301A43734B1B6893F8344000F10B030B
:1044B0001A55827A6F4B1B6893F836301A43827212
:1044C0006C4A126892F83410724A525C694B1B684D
:1044D00093F835309A436F4B5A541A46525C42B99E
:1044E000644A126892F83630694A12789A43684BE7
:1044F0001A7010BD014600228A72002005E00023D8
:1045000001F10B021354421CD0B20828F7D37047B4
:1045100005E011F8013B00F8013B531E9AB2002A56
:10452000F7D170470146002002E0491C421CD0B27E
:104530000A78002AF9D170472DE9F84F05460F4651
:1045400090469946DDE90AAB0020009002F0A0FBFE
:10455000009052480468002C7CD004F1180454F8F0
:10456000040C4E490860009802F096FB44F8187C51
:10457000A576002020766076606144F814BC44F88B
:104580000CAC44F8108C0C9824F8080C24F8069C09
:104590000020E077E810207705F00700E076217F23
:1045A00001208840A077E17E0120884060770020CC
:1045B0006060E060A0602062A0626062E0622063F0
:1045C000AFF288306063A4F118044FF0000606E0F3
:1045D000002104F1500040F82610701CC6B2002ED5
:1045E000F6D0204602F04EFB204602F071FA02F0AF
:1045F0004FFB00901D4840F825402448006860614A
:104600000020A0612148006810B120480068846142
:104610001E48046004F13404A0781D49097840EA7A
:1046200001001B49087020781A49085C617840EA4B
:10463000010014F83419174A50541948007800F151
:10464000010017490870009802F026FB0020BDE821
:10465000F88FFFE7009802F01FFB4220F7E7000009
:10466000820000207800002077000020480600200B
:104670009000002088000020840000206C000020B2
:1046800074000020A000002098000020940000206A
:10469000790000207A000020468C00088C00002061
:1046A0008300002070B5054600266548007800B1FB
:1046B00070BD6448007800B1FAE71DB302F0E8FA73
:1046C00006466148006890F834406048005D5E49E5
:1046D000096891F8351088435C4908550846005D23
:1046E00040B95948006890F8361059480078884316
:1046F0005749087054480068C562304602F0CCFA49
:10470000FFF725FD00BFD3E72DE9F04104460D4634
:1047100016461F464A48007810B15520BDE8F08182
:104720004848007808B13220F8E7B81CC82148434F
:104730004FF47A71B0FBF1F14FF461606043C5EB67
:10474000051200EB8200304400EBC00202EB0010C7
:1047500001EBC0084046FFF7A5FF0020DEE770B57B
:10476000054600263F2D01D32A2070BD02F090FAA5
:104770000646384850F8254024B9304602F08CFAF5
:104780004320F2E7012C04D1304602F085FA4320A1
:10479000EBE7E06A20B9304602F07EFA5020E4E709
:1047A0000020E06294F8300010F0370F09D014F8C0
:1047B000300F20F03700207001206070A4F1300429
:1047C00002E0002084F8310094F8300010F0080F67
:1047D00018D104F13404A0781D49097840EA010099
:1047E0001B49087020781949085C617840EA01008B
:1047F00014F83419154A5054304602F04DFAFFF7B8
:10480000A6FC02E0304602F047FA0020ADE770B5A2
:10481000002502F03DFA05460F480468284602F0DC
:104820003BFA204670BD70B50446002502F030FA10
:10483000054609480460284602F02EFA70BD0000C3
:104840007500002076000020880000207A000020FB
:104850007900002048060020A000002010B5044682
:10486000FE48844208D101210846FCF7ACFB002138
:104870000120FCF7A8FB9DE0B4F1804F08D1012195
:104880000846FCF78FFB00210120FCF78BFB91E031
:10489000F348844208D101210220FCF783FB002168
:1048A0000220FCF77FFB85E0EE48844208D101211D
:1048B0000420FCF777FB00210420FCF773FB79E070
:1048C000E948844208D101210820FCF76BFB002154
:1048D0000820FCF767FB6DE0E448844208D1012121
:1048E0001020FCF75FFB00211020FCF75BFB61E070
:1048F000DF48844208D101212020FCF753FB00212E
:104900002020FCF74FFB55E0DA48844208D1012112
:104910000220FCF758FB00210220FCF754FB49E081
:10492000D548844209D101210804FCF74CFB002141
:104930004FF48030FCF747FB3CE0D048844209D17B
:1049400001214804FCF73FFB00214FF40030FCF745
:104950003AFB2FE0CA48844209D101218804FCF7C0
:1049600032FB00214FF48020FCF72DFB22E0C548EC
:10497000844208D101214020FCF714FB0021402093
:10498000FCF710FB16E0C048844208D101218020CA
:10499000FCF708FB00218020FCF704FB0AE0BB4881
:1049A000844207D101218015FCF7FCFA0021A015F3
:1049B000FCF7F8FA10BD00220288A84B98420ED0EE
:1049C000AC4B98420BD0B0F1804F08D0A44B98422A
:1049D00005D0A44B984202D0A34B984204D14FF685
:1049E0008F731A404B881A43A04B984207D0A04BB4
:1049F000984204D04FF6FF431A400B891A430280B5
:104A00004B68C3620B880385944B984202D0994B44
:104A1000984201D18B7A03860123838270474FF03D
:104A2000FF31416000210180018141808172704726
:104A30000185828270470A46002101884FF68F73F4
:104A4000194011430180704741627047C16270474D
:104A50000146486A70470146088D704721B10288B7
:104A600042F00202028004E002884FF6FD731A4011
:104A70000280704721B1028842F00402028004E003
:104A800002884FF6FB731A400280704721B10288FA
:104A900042F08002028004E002884FF67F731A40E1
:104AA0000280704702884FF6F7731A40028002882E
:104AB0000A430280704702884FF6FF431A40028083
:104AC00002880A430280704721B1028842F0010245
:104AD000028004E002884FF6FE731A40028070479D
:104AE00070B5002400220023058C4FF6FE76354079
:104AF0000584028C8388048B4FF68F752C40B51E7D
:104B00002C400D882C43751E2A408D892A434D88E0
:104B10002A43524DA84202D0564DA84213D14FF617
:104B2000F7752A40CD892A434FF6FB752A408D88B8
:104B30002A434FF6FF652B404FF6FF552B400D8A59
:104B40002B434D8A2B43838004838D684563028405
:104B500070BD70B5002400220023058C4FF6EF765F
:104B600035400584028C8388048B48F6FF752C4001
:104B70004FF6FF452C400D884FF6FF7606EA0525D7
:104B80002C434FF6DF752A408D8906EA05152A4326
:104B90004D8806EA05152A43304DA84202D0354D0E
:104BA000A8421DD14FF67F752A40CD894FF6FF767A
:104BB00006EA05152A434FF6BF752A408D8806EA96
:104BC00005152A434FF6FF352B404FF2FF752B405A
:104BD0000D8A06EA85052B434D8A06EA85052B4397
:104BE000838004838D688563028470BD70B5002462
:104BF00000220023058C4FF6FF6635400584028CA9
:104C00008388848B4FF68F752C404FF6FC752C40B3
:104C10000D882C434FF6FF552A408D894FF6FF76BD
:104C200006EA05252A434D8806EA05252A430B4D49
:104C3000A84202D00F4DA84238D14FF2FF752A404A
:104C4000CD894FF6FF7606EA05252A434FF6FF3554
:104C50002A408D8806EA05252A4319E00000014014
:104C60000004004000080040000C0040001000401C
:104C70000014004000040140004001400044014095
:104C80000048014000180040001C00400020004087
:104C90004EF6FF752B404DF6FF752B400D8A06EA48
:104CA00005152B434D8A06EA05152B438380848323
:104CB0008D68C563028470BD70B500220023002496
:104CC000058C4EF6FF7635400584038C8488828BF4
:104CD00048F6FF752A404FF6FF452A400D884FF6EB
:104CE000FF7606EA05252A434DF6FF752B408D8990
:104CF00006EA05352B434D8806EA05352B43FE4D64
:104D0000A84202D0FD4DA84208D14BF6FF752C40B9
:104D10000D8A4FF6FF7606EA85152C438480828340
:104D20008D680564038470BD00210180418081800D
:104D300081608181C18101824182704770B50346E3
:104D4000002000241846183001258D40ACB21D8C7F
:104D5000A5431D8409B108290AD100EB610005684B
:104D60004FF68F76354005600568154305600FE006
:104D70000D1FC5F34E052844056848F6FF763540FB
:104D8000056005684FF6FF7606EA022635430560A2
:104D900070BD4163704781637047C16370470164B0
:104DA00070470A460021018B4FF68F73194011435B
:104DB000018370470A460021018B48F6FF731940B2
:104DC0004FF6FF7303EA02231943018370470A4633
:104DD0000021818B4FF68F731940114381837047F7
:104DE0000A460021818B48F6FF7319404FF6FF7386
:104DF00003EA02231943818370470A460021018B8D
:104E00004FF6F77319401143018370470A4600219A
:104E1000018B4FF2FF7319404FF6FF7303EA022331
:104E20001943018370470A460021818B4FF6F773BF
:104E300019401143818370470A460021818B4FF24C
:104E4000FF7319404FF6FF7303EA0223194381836E
:104E500070470A460021018B4FF6FB73194011433E
:104E6000018370470A460021018B4FF6FF3319403A
:104E70004FF6FF7303EA02231943018370470A4682
:104E80000021818B4FF6FB731940114381837047DA
:104E90000A460021818B4FF6FF3319404FF6FF730E
:104EA00003EA02231943818370470A460021018BDC
:104EB0004FF67F7319401143018370470A46002162
:104EC000018BC1F30E014FF6FF7303EA022319436E
:104ED000018370470A460021818B4FF67F7319408A
:104EE0001143818370470A460021818BC1F30E0173
:104EF0004FF6FF7303EA02231943818370470A4682
:104F00000021018C4FF6FD73194011430184704755
:104F10000A460021018C4FF6F773194011430184B2
:104F200070470A460021018C4FF6DF7319404FF697
:104F3000FF7303EA02131943018470470A460021F4
:104F4000018C4FF67F7319404FF6FF7303EA02138B
:104F50001943018470470A460021018C4FF6FF5324
:104F600019404FF6FF7303EA022319430184704787
:104F70000A460021018C4FF2FF7319404FF6FF7370
:104F800003EA02231943018470470A460021018C79
:104F90004DF6FF7319404FF6FF7303EA02331943CE
:104FA0000184704730B5002301248C40A3B2048CE7
:104FB0009C430484048C02FA01F5ADB22C430484B2
:104FC00030BD30B5002304248C40A3B2048C9C4334
:104FD0000484048C02FA01F5ADB22C43048430BD84
:104FE000828B4FF2FF331A408283828B4FF6FF731E
:104FF00003EA01231A4382837047F0B50C46154635
:10500000002100220026078C4EF6FF7C07EA0C07E1
:105010000784818B028C4FF6FF7707EA043640F64F
:10502000FF4739404FF6FF7707EA052739434FF628
:10503000FF7707EA0337394345F6FF773A4046F4EE
:1050400080573A4381830284F0BD828B4FF6F3731D
:105050001A408283828B0A4382837047F0B50C46E4
:105060001546002100220026078C4FF6FF6C07EA48
:105070000C070784818B028C4FF6FF7707EA042622
:105080004FF60C7739404FF6FF7707EA03172F43A7
:1050900039434FF2FF573A4046F480773A438183D1
:1050A0000284F0BD028B4FF2FF331A400283028B61
:1050B0004FF6FF7303EA01231A4302837047F0B5EA
:1050C0000C461546002100220026078C4FF6EF7C87
:1050D00007EA0C070784018B028C4FF6FF7707EA7B
:1050E000041640F6FF4739404FF6FF7707EA0337CB
:1050F00039434FF6FF7703E0000001400004014010
:1051000007EA052739434FF65F773A4046F0100724
:105110003A4301830284F0BD028B4FF6F3731A40C9
:105120000283028B0A4302837047F0B50C46154692
:1051300000210022068C4FF6FE773E400684018B4C
:10514000028C4FF60C7631407E1C06EA03162E4385
:1051500031434FF6F576324044F001063243018385
:105160000284F0BD70B505460C46208850B92389ED
:10517000A28861882846FFF7D8FFE1882846FFF714
:10518000CBFF25E0208804280AD12389A2886188E2
:105190002846FFF794FFE1882846FFF783FF17E0D2
:1051A000208808280AD12389A28861882846FFF729
:1051B00055FFE1882846FFF748FF09E02389A288C8
:1051C00061882846FFF719FFE1882846FFF708FFA6
:1051D00070BD002101804180012181800021C180BA
:1051E000018170472DE9F04105460C460026012754
:1051F000608808B9022600E00026A088012801D1B5
:10520000022700E001272088A0B92389A2886188AD
:105210002846FFF78AFFE1882846FFF77DFF2389AC
:105220003A4631462846FFF74AFFE1882846FFF70D
:1052300039FF13E02389A28861882846FFF73FFFE2
:10524000E1882846FFF72EFF23893A463146284653
:10525000FFF76BFFE1882846FFF75EFFBDE8F081AE
:105260000146486B70470146886B70470146C86B22
:1052700070470146086C70470A884B881A438B8830
:105280001A43CB881A430B891A434B891A438B89DB
:105290001A43A0F84420704700210180418081809A
:1052A000C180018141818181704731B1B0F84420D2
:1052B00042F40042A0F8442005E0B0F84420C2F3D4
:1052C0000E02A0F84420704721B1828842F0040207
:1052D000828004E082884FF6FB731A408280704718
:1052E00021B1828842F00102828004E082884FF678
:1052F000FE731A40828070471AB183890B43838101
:1053000002E083898B438381704781827047024624
:105310000020138A0B4201D0012000E000207047DA
:10532000CA430282704730B50246002000230024A1
:10533000158A05EA0103958905EA010413B10CB148
:10534000012000E0002030BDCA430282704741EADC
:105350000203A0F8483070471AB183890B43838158
:1053600002E083898B438381704721B1828842F0B8
:105370000802828004E082884FF6F7731A40828028
:10538000704701894FF6F8721140018170470A4653
:10539000002101894FF68F73194011430181704735
:1053A00030B504460D4629462046FFF7F0FF208918
:1053B00040F00700208130BD2DE9F04104460D4644
:1053C00016461F46602D06D13B4601223146204637
:1053D000FFF775FE05E03B46012231462046FFF708
:1053E000A4FE29462046FFF7D2FF208940F007009F
:1053F0002081BDE8F08130B50C4600210189C9B299
:105400004FF6FF7505EA032515432543294301811E
:1054100030BD2DE9F04105460E461746984600245A
:1054200043463A4631462846FFF7E5FF2C894FF6BA
:10543000F870044044F007044FF68F70044044F0C5
:1054400070042C81BDE8F081F0B504460D46164687
:105450001F463B46324629462046FFF7CCFF2089AF
:1054600040F480402081F0BD82884FF68F731A404F
:10547000828082880A438280704702894FF6F873DF
:105480001A40028102890A430281704702894FF65D
:105490007F731A40028102890A4302817047F0B586
:1054A0000C4615461E460021002200230189028B6E
:1054B000038C4FF6F877394021434FF6FC473A40CA
:1054C00040F201173A434FF6DD773B404FF6FF7746
:1054D00007EA06172F433B43018102830384F0BD93
:1054E00021B1828842F08002828004E082884FF6F7
:1054F0007F731A4082807047A0F8501070470000F8
:105500002DE9F05F04460F4691461E464FF0000B12
:105510002078052804D0012030700020BDE8F09FDD
:1055200009F0800ABAF1000F04D029F080094FF089
:10553000010801E04FF000080020307001F0A8FBE6
:105540008346B9F1000F2CD0B9F1010F3BD0B9F16E
:10555000020F03D0B9F1030F46D111E0208900EA10
:105560000705BD4206D1B8F1010F05D12089A84336
:10557000208101E070203070584601F08DFB3AE048
:10558000208900EA070535B1B8F1010F05D120895E
:10559000A843208101E070203070584601F07CFB68
:1055A00029E0208927EA0005BD4206D1B8F1010FA4
:1055B00005D120892843208101E0702030705846B1
:1055C00001F06AFB17E0208927EA000535B1B8F140
:1055D000010F05D120892843208101E0702030701F
:1055E000584601F059FB06E0584601F055FB0025EE
:1055F0006F20307000BF00BF28468FE72DE9F041D3
:1056000006460D460027FD48007820B1102028707E
:105610000020BDE8F08101F03BFB0746F848046834
:1056200084B100684068F649086005202070268132
:1056300000206060F3A0E060384601F02DFB002000
:10564000287004E0384601F027FB722028702046BD
:10565000DFE730B501464A6808682AB9CC6860605F
:1056600028B10025456002E0106000B142608B68FF
:1056700000255D6230BDF0B506460F46B4680020D7
:1056800004F1280460602780207A00F0DF00207297
:105690004FF000006072207AA4F12804A8B904F148
:1056A0003404A078D849097840EA0100D649087046
:1056B0002078D649085C617840EA010014F8341972
:1056C000D24A50544FF0010500E000253046FFF764
:1056D000C0FF2846F0BD2DE9F0470446894615462F
:1056E0004FF0000AC548007820B10F2028702046EE
:1056F000BDE8F0872078052803D0012028702046D7
:10570000F6E701F0C5FA8246606808B1012700E0BB
:105710000027B9F1000F03D0B9F1010F3CD119E016
:105720008FB9B8A0E06000202070B54800686060C4
:1057300000202081B2480460504601F0ADFA0020FC
:105740002870002605E0504601F0A6FA492028708E
:10575000264628E0D4F8048005E000214046FFF703
:105760008AFFD8F80080B8F1000FF6D1A5A0E0605C
:1057700000202070A2480068606000202081A048BE
:105780000460504601F088FA012F01D1FEF7DFFCDA
:1057900000202870002606E0504601F07DFA072020
:1057A0002870264600BF00BF3046A1E72DE9F04132
:1057B00005460E46144600279048007820B1112077
:1057C00020700020BDE8F08101F062FA07462878D9
:1057D000052806D0384601F05FFA0120207000202D
:1057E000F0E7E86830603068FEF79CFE8046384697
:1057F00001F052FA002020704046E3E72DE9F04125
:1058000005460E46144600277C48007818B1122041
:105810002070BDE8F08101F03BFA074628780528A2
:1058200005D0384601F038FA01202070F1E7EE602B
:10583000384601F031FA0020207000BFE9E7F0B5EA
:105840001446059E724F3F6897F8307047F0200766
:10585000DFF8BCC1DCF800C08CF830700027DFF83E
:10586000B0C1DCF800C08CF83170694F3F68FE624F
:10587000674F3F6879620C828B74654F3F688F6019
:1058800047680F6000274F60C860456805B16960D0
:1058900041605F4F3F6897F834205C4FBF5CDFF892
:1058A00070C1DCF800C09CF835C027EA0C07DFF8AF
:1058B0005CC10CF802706746BF5C5FB9544F3F682B
:1058C00097F836C0504F3F7827EA0C07DFF838C109
:1058D0008CF80070F0BD2DE9F04F89B005460F46F9
:1058E00091469A46129E002002904448007828B1C2
:1058F00002203070002009B0BDE8F08F45480078E4
:1059000018B10D2030700020F5E72878052803D065
:10591000012030700020EEE709F0800BBBF1000F92
:1059200004D009F07F094FF0010801E04FF00008B2
:1059300001F0AEF90290B9F1000F4AD0B9F1010FB0
:1059400078D0B9F1020F03D0B9F1030F71D120E083
:10595000288900EA0704BC420FD1B8F1010F02D137
:105960002889A04328812A4800680485029801F00C
:1059700093F9002030702046BDE74B463A4604A913
:105980002846CDF800A0FFF75AFF029801F084F9ED
:1059900078E0288900EA07047CB1B8F1010F02D150
:1059A0002889A04328811A4800680485029801F0DC
:1059B00073F90020307020469DE74B463A4604A913
:1059C0002846CDF800A0FFF73AFF029801F064F9ED
:1059D00058E0288927EA0004BC421ED1B8F1010F23
:1059E00002D128892043288109480068048502984B
:1059F00001F052F90020307020467CE7750000204D
:105A0000640000203F000000790000207A000020A0
:105A100088000020760000200CE04B463A4604A99E
:105A20002846CDF800A0FFF70AFF029801F034F9EC
:105A300028E01FE0288927EA00047CB1B8F1010FB3
:105A400002D1288920432881B04800680485029843
:105A500001F022F90020307020464CE74B463A46D0
:105A600004A92846CDF800A0FFF7E9FE029801F04E
:105A700013F907E0029801F00FF900246F2030704D
:105A8000204638E700BFFEF762FB01F001F9029003
:105A90009E48006890F8310020B39C48006890F858
:105AA0003100039000209949096881F8310004A869
:105AB000FFF7CFFD00209549096881F83000029872
:105AC00001F0EAF800240398012804D0022803D149
:105AD0000E20307003E000BF0A20307000BF00BF0E
